:100000000C9434000C943E000C943E000C943E0082
:100010000C943E000C943E000C943E000C943E0068
:100020000C943E000C943E000C943E000C943E0058
:100030000C943E000C943E000C943E000C943E0048
:100040000C943E000C943E000C943E000C943E0038
:100050000C943E000C943E000C943E000C943E0028
:100060000C943E000C943E0011241FBECFEFD4E050
:10007000DEBFCDBF0E9440000C94DF000C94000056
:100080000E94970081E00E94C1002FEF89E698E16D
:10009000215080409040E1F700C0000082E00E94C3
:1000A000C1002FEF89E698E1215080409040E1F7B0
:1000B00000C0000083E00E94C1002FEF89E698E1B4
:1000C000215080409040E1F700C0000084E00E9491
:1000D000C1002FEF89E698E1215080409040E1F780
:1000E00000C0000085E00E94C1002FEF89E698E182
:1000F000215080409040E1F700C0000086E00E945F
:10010000C1002FEF89E698E1215080409040E1F74F
:1001100000C0000087E00E94C1002FEF89E698E14F
:10012000215080409040E1F700C00000ABCF87B184
:10013000876087B988B1887F88B93B983C98439A93
:1001400088B18F6E88B9089561110EC048B121E061
:1001500030E0B90102C0660F771F8A95E2F7CB0144
:100160008095842388B9089548B121E030E0B90131
:1001700002C0660F771F8A95E2F7CB01842B88B9FE
:10018000089598B1987F98B998B18770982B98B9CD
:1001900008958F70806480937C0087EC80937A0050
:1001A000EAE7F0E0808186FDFDCF20917800809124
:1001B000790090E0982F8827820F911D0895F89478
:0201C000FFCF6F
:00000001FF
