:100000000C9434000C943E000C943E000C943E0082
:100010000C943E000C943E000C943E000C943E0068
:100020000C943E000C943E000C943E000C943E0058
:100030000C943E000C943E000C943E000C943E0048
:100040000C943E000C943E000C943E000C943E0038
:100050000C943E000C943E000C943E000C943E0028
:100060000C943E000C943E0011241FBECFEFD4E050
:10007000DEBFCDBF0E9440000C9418010C9400001C
:100080000E94D00084E00E9402012FEF33EC49E08F
:10009000215030404040E1F700C000008038910519
:1000A00068F480E00E94FA008FEF99E628E1815021
:1000B00090402040E1F700C00000E4CF8F3F910561
:1000C00009F068F481E00E94FA003FEF49E688E118
:1000D000315040408040E1F700C00000D3CF80386D
:1000E00021E0920768F482E00E94FA003FEF49E6BF
:1000F00088E1315040408040E1F700C00000C2CFAD
:10010000811522E0920768F483E00E94FA003FEF35
:1001100049E688E1315040408040E1F700C00000EE
:10012000B1CF803822E0920768F484E00E94FA00A0
:100130003FEF49E688E1315040408040E1F700C0A0
:100140000000A0CF811523E0920768F485E00E94AB
:10015000FA003FEF49E688E1315040408040E1F746
:1001600000C000008FCF8038934068F486E00E9482
:10017000FA003FEF49E688E1315040408040E1F726
:1001800000C000007FCF87E00E94FA009FEF29E6C1
:1001900038E1915020403040E1F700C0000072CFBC
:1001A00087B1876087B988B1887F88B93B983C98C8
:1001B000439A88B18F6E88B9089561110EC048B115
:1001C00021E030E0B90102C0660F771F8A95E2F79F
:1001D000CB018095842388B9089548B121E030E0AF
:1001E000B90102C0660F771F8A95E2F7CB01842B15
:1001F00088B9089598B1987F98B998B18770982B6D
:1002000098B908958F70806480937C0087EC809308
:100210007A00EAE7F0E0808186FDFDCF209178004A
:100220008091790090E0982F8827820F911D089582
:04023000F894FFCF70
:00000001FF
