:100000000C9434000C943E000C943E000C943E0082
:100010000C943E000C943E000C943E000C943E0068
:100020000C943E000C943E000C943E000C943E0058
:100030000C943E000C943E000C943E000C943E0048
:100040000C943E000C943E000C943E000C943E0038
:100050000C943E000C943E000C943E000C943E0028
:100060000C943E000C943E0011241FBECFEFD4E050
:10007000DEBFCDBF0E9440000C94C4000C94000071
:100080000E947C0084E00E94AE002FEF33EC49E038
:10009000215030404040E1F700C00000853521E0AC
:1000A000920768F481E00E94A6003FEF49E688E1EC
:1000B000315040408040E1F700C00000E3CF8A3A71
:1000C000924068F482E00E94A6003FEF49E688E192
:1000D000315040408040E1F700C00000D3CF84E0C1
:1000E0000E94A6009FEF29E638E191502040304061
:1000F000E1F700C00000C6CF87B1876087B988B13B
:10010000887F88B93B983C98439A88B18F6E88B9AC
:10011000089561110EC048B121E030E0B90102C07C
:10012000660F771F8A95E2F7CB018095842388B903
:10013000089548B121E030E0B90102C0660F771F91
:100140008A95E2F7CB01842B88B9089598B1987FFE
:1001500098B998B18770982B98B908958F7080647A
:1001600080937C0087EC80937A00EAE7F0E080815E
:1001700086FDFDCF209178008091790090E0982F46
:0C0180008827820F911D0895F894FFCF8E
:00000001FF
