:100000000C9434000C943E000C943E000C943E0082
:100010000C943E000C943E000C943E000C943E0068
:100020000C943E000C943E000C943E000C943E0058
:100030000C943E000C943E000C943E000C943E0048
:100040000C943E000C943E000C943E000C943E0038
:100050000C943E000C943E000C943E000C943E0028
:100060000C943E000C943E0011241FBECFEFD4E050
:10007000DEBFCDBF0E9440000C94A6000C9400008F
:100080000E945E0080E00E948800C0E002C0339BB6
:1000900005C03399FCCF02C0339902C0339BFCCF1B
:1000A000CF5F8C2F0E9488002FEF81EE94E02150CB
:1000B00080409040E1F700C00000EBCF87B187603F
:1000C00087B988B1887F88B93B983C98439A88B1B2
:1000D0008F6E88B9089561110EC048B121E030E0FB
:1000E000B90102C0660F771F8A95E2F7CB018095B0
:1000F000842388B9089548B121E030E0B90102C0F5
:10010000660F771F8A95E2F7CB01842B88B9089593
:1001100098B1987F98B998B18770982B98B908953D
:100120008F70806480937C0087EC80937A00EAE78C
:10013000F0E0808186FDFDCF2091780080917900EC
:1001400090E0982F8827820F911D0895F894FFCF93
:00000001FF
