:100000000C9434000C9446000C9446000C9446006A
:100010000C9446000C9446000C9446000C94460048
:100020000C9446000C9446000C9446000C94460038
:100030000C9446000C9446000C9446000C94460028
:100040000C9465010C9446000C9446000C944600F8
:100050000C9446000C9446000C9446000C94460008
:100060000C9446000C94460011241FBECFEFD4E040
:10007000DEBFCDBF21E0A0E0B1E001C01D92A03104
:10008000B207E1F70E948C010C94A2010C940000CD
:100090000F931F93CF93DF93EC01E881F9813097A1
:1000A00009F441C0099483E590E0998388830E9414
:1000B0005501009104011091050120910601309134
:1000C0000701DC01CB01801B910BA20BB30B883E17
:1000D0009340A105B105B0F160E082E00E941301F8
:1000E0000E945501609304017093050180930601FD
:1000F000909307018AE790E0998388830E945501D5
:100100000091040110910501209106013091070131
:10011000DC01CB01801B910BA20BB30B843F914000
:10012000A105B10578F061E082E00E9413010E9410
:10013000550160930401709305018093060190932B
:100140000701B1CF80E0DF91CF911F910F9108950A
:100150000F931F93CF93DF93EC01E881F9813097E0
:1001600009F441C0099483EB90E0998388830E944D
:10017000550100910001109101012091020130917F
:100180000301DC01CB01801B910BA20BB30B8C3B59
:100190009240A105B105B0F160E080E00E9413013A
:1001A0000E94550160930001709301018093020148
:1001B000909303018AED90E0998388830E94550112
:1001C0000091000110910101209102013091030181
:1001D000DC01CB01801B910BA20BB30B8C32914045
:1001E000A105B10578F061E080E00E9413010E9452
:1001F0005501609300017093010180930201909377
:100200000301B1CF80E0DF91CF911F910F9108954D
:1002100087B1876087B987B1877E87B988B1887EC3
:1002200088B9439A089548B121E030E0662349F047
:10023000B90102C0660F771F8A95E2F7CB01842BC4
:1002400009C0B90102C0660F771F8A95E2F7CB019A
:100250008095842388B9089598B1987F98B998B10A
:100260008770982B98B908958F70806480937C0074
:1002700087EC80937A0080917A0086FDFCCF2091F4
:1002800078008091790090E0982F8827820F911D47
:10029000089584E00C94340114BC83E085BD81E0B2
:1002A00080936E0086E086BD08952FB7F894809104
:1002B000080190910901A0910A01B0910B012FBF93
:1002C000BC01CD018827992708951F920F920FB680
:1002D0000F9211248F939F93AF93BF938091080146
:1002E00090910901A0910A01B0910B010196A11D05
:1002F000B11D8093080190930901A0930A01B09366
:100300000B0186E086BDBF91AF919F918F910F90B9
:100310000FBE0F901F9018950E9408010E944C017B
:10032000789410920D0110920C0110920F0110920E
:100330000E018CE091E00E9448008EE091E00E9466
:08034000A800F7CFF894FFCFED
:00000001FF
