:100000000C9434000C9446000C9446000C9446006A
:100010000C9446000C9446000C9446000C94460048
:100020000C9446000C9446000C9446000C94460038
:100030000C9446000C9446000C9446000C94460028
:100040000C94D4010C9446000C9446000C94460089
:100050000C9446000C9446000C9446000C94460008
:100060000C9446000C94460011241FBECFEFD4E040
:10007000DEBFCDBF21E0A0E0B1E001C01D92A731FD
:10008000B207E1F70E94FB010C9419020C940000E6
:100090000F931F93CF93DF93EC01E881F9813097A1
:1000A00009F441C0099483E590E0998388830E9414
:1000B000C4010091090110910A0120910B013091B6
:1000C0000C01DC01CB01801B910BA20BB30B883E12
:1000D0009340A105B105B0F160E082E00E94820189
:1000E0000E94C4016093090170930A0180930B017F
:1000F00090930C018AE790E0998388830E94C40161
:100100000091090110910A0120910B0130910C011D
:10011000DC01CB01801B910BA20BB30B843F914000
:10012000A105B10578F061E082E00E9482010E94A1
:10013000C4016093090170930A0180930B019093AD
:100140000C01B1CF80E0DF91CF911F910F91089505
:100150000F931F93CF93DF93EC01E881F9813097E0
:1001600009F441C0099483EB90E0998388830E944D
:10017000C401009105011091060120910701309101
:100180000801DC01CB01801B910BA20BB30B8C3B54
:100190009240A105B105B0F160E080E00E948201CB
:1001A0000E94C401609305017093060180930701CA
:1001B000909308018AED90E0998388830E94C4019E
:1001C000009105011091060120910701309108016D
:1001D000DC01CB01801B910BA20BB30B8C32914045
:1001E000A105B10578F061E080E00E9482010E94E3
:1001F000C4016093050170930601809307019093F9
:100200000801B1CF80E0DF91CF911F910F91089548
:100210000F931F93CF93DF93EC01E881F98130971F
:1002200009F009941092040184E191E09983888394
:10023000339957C00E94C40160930001709301017B
:10024000809302019093030184E291E09983888373
:100250000E94C4010091000110910101209102014E
:1002600030910301DC01CB01801B910BA20BB30B7E
:100270000A97A105B105A8F16091040170E06F5FD4
:100280007F4F617077276093040181E00E948201B3
:1002900088E491E099838883339B23C00E94C40142
:1002A0006093000170930101809302019093030118
:1002B00088E591E0998388830E94C4010091000140
:1002C000109101012091020130910301DC01CB0169
:1002D000801B910BA20BB30B0A97A105B10508F087
:1002E000A3CF80E0DF91CF911F910F91089587B147
:1002F000876087B987B1877E87B988B1887E88B9DA
:10030000439A089548B121E030E0662349F0B901ED
:1003100002C0660F771F8A95E2F7CB01842B09C0D4
:10032000B90102C0660F771F8A95E2F7CB0180956D
:10033000842388B9089598B1987F98B998B1877047
:10034000982B98B908958F70806480937C0087EC17
:1003500080937A0080917A0086FDFCCF209178000E
:100360008091790090E0982F8827820F911D089541
:1003700084E00C94A30114BC83E085BD81E08093EC
:100380006E0086E086BD08952FB7F89480910D0128
:1003900090910E01A0910F01B09110012FBFBC01EF
:1003A000CD018827992708951F920F920FB60F92BB
:1003B00011248F939F93AF93BF9380910D019091E0
:1003C0000E01A0910F01B09110010196A11DB11D68
:1003D00080930D0190930E01A0930F01B093100133
:1003E00086E086BDBF91AF919F918F910F900FBE18
:1003F0000F901F9018950E9477010E94BB0178947E
:100400001092120110921101109214011092130116
:10041000109216011092150181E191E00E944800AE
:1004200083E191E00E94A80085E191E00E9408012B
:06043000F3CFF894FFCFAA
:00000001FF
