:100000000C9463000C9467030C9480000C948000A3
:100010000C9480000C9480000C9480000C94800060
:100020000C9480000C9480000C9480000C94800050
:100030000C9480000C9480000C9480000C94800040
:100040000C9436020C9480000C9480000C94800078
:100050000C9480000C9480000C9480000C94800020
:100060000C9480000C9480000902120001010080B1
:100070003209040000000000000012011001FF001E
:100080000008C016DC050001010200011C03490044
:1000900044002000310032003300340035003600C7
:1000A00037003800390030001A0363007000650023
:1000B0002E006B0075002E00610063002E0074009E
:1000C00068000403090411241FBECFEFD4E0DEBF93
:1000D000CDBF11E0A0E0B1E0E4E4F9E002C005909A
:1000E0000D92A230B107D9F721E0A2E0B1E001C042
:1000F0001D92A434B207E1F70E947B040C94A00483
:100100000C940000CF93FC01C181C11105C0628134
:1001100084810E94E4013DC0C13021F482810E94AB
:10012000FD0136C0C23059F486B183FB992790F99E
:1001300081E0892780930D018DE091E023C0C330D9
:1001400071F40E941A0290930C0180930B018BE0D2
:1001500091E09093290180932801C2E01AC0C43035
:1001600039F482819381909317018093160110C016
:10017000C53071F48091150180930A011092150128
:100180008AE091E09093290180932801C1E001C0A9
:10019000C0E08C2FCF9108950F931F93CF93DF93DF
:1001A000EC01E881F981309709F009941092170168
:1001B000109216018AED90E0998388838091160150
:1001C00090911701892B09F486C081E00E94FD01FE
:1001D0000E94260260930601709307018093080134
:1001E0009093090182EF90E0998388830E94260210
:1001F0000091060110910701209108013091090139
:10020000AB01BC01401B510B620B730B80911601BB
:1002100090911701A0E0B0E0481759076A077B07E3
:1002200008F459C082E00E94FD010E9426026093FA
:1002300006017093070180930801909309018FE1F3
:1002400091E0998388830E94260200910601109113
:1002500007012091080130910901AB01BC01401B4D
:10026000510B620B730B8091160190911701A0E066
:10027000B0E0481759076A077B0768F184E00E94DD
:10028000FD010E942602609306017093070180938E
:100290000801909309018BE491E0998388830E947F
:1002A000260200910601109107012091080130916A
:1002B0000901AB01BC01401B510B620B730B809118
:1002C000160190911701A0E0B0E0481759076A079E
:1002D0007B0708F06FCF80E0DF91CF911F910F91E6
:1002E00008950F931F93CF93DF93EC01E881F98179
:1002F000309709F00994109215018DE791E09983E8
:100300008883339950C00E94260260930201709343
:10031000030180930401909305018DE891E0998396
:1003200088830E942602009102011091030120910E
:10033000040130910501DC01CB01801B910BA20B64
:10034000B30B0A97A105B10570F1809115018F5F7C
:10035000809315018AEA91E099838883339B23C0B7
:100360000E942602609302017093030180930401AE
:10037000909305018AEB91E0998388830E9426027D
:1003800000910201109103012091040130910501B7
:10039000DC01CB01801B910BA20BB30B0A97A105CB
:1003A000B10508F0AACF80E0DF91CF911F910F91A6
:1003B000089587B1876087B987B1877E87B988B18B
:1003C000887E88B9439A089548B121E030E06623D9
:1003D00049F0B90102C0660F771F8A95E2F7CB0199
:1003E000842B09C0B90102C0660F771F8A95E2F716
:1003F000CB018095842388B9089598B1987F98B9E6
:1004000098B18770982B98B908958F708064809305
:100410007C0087EC80937A0080917A0086FDFCCF87
:10042000209178008091790090E0982F8827820FA2
:10043000911D089584E00C94050214BC83E085BDF1
:1004400081E080936E0086E086BD08952FB7F89412
:1004500080910E0190910F01A0911001B0911101B6
:100460002FBFBC01CD018827992708951F920F92B5
:100470000FB60F9211248F939F93AF93BF938091E8
:100480000E0190910F01A0911001B0911101019600
:10049000A11DB11D80930E0190930F01A093100137
:1004A000B093110186E086BDBF91AF919F918F916E
:1004B0000F900FBE0F901F901895CF93DF938091F0
:1004C0002A01835087FD8AC090912701209126013F
:1004D0002D3209F081C0883009F07EC0CCE0D0E038
:1004E000C91BD109C25DDE4F83EC80931A018AE5F6
:1004F00080930101109212018881807621F0CE0153
:100500000E94820060C08A8110922301998191111A
:1005100006C01092240123E231E082E050C0953001
:1005200019F480932B013DC09630A9F59B81913041
:1005300019F48AE790E004C0923041F488E690E034
:10054000909329018093280182E121C09330F1F436
:10055000811108C082EC90E09093290180932801DA
:1005600084E015C0813041F488EA90E0909329013D
:10057000809328018AE10BC0823041F48CE890E03E
:1005800090932901809328018CE101C080E090E4E0
:100590009093120118C0983079F0993031F480931B
:1005A0002D0123E231E080E00AC081E09A3009F0B9
:1005B00080E023E231E003C02DE231E081E03093BE
:1005C0002901209328019F81911104C09E819817D1
:1005D00008F4892F8093000110922A018091010173
:1005E00084FF48C0809100018F3F09F443C0C82FA9
:1005F000893008F0C8E08C1B8093000190911A01AB
:1006000088E8892780931A01CC2339F18091280149
:10061000909129012091120126FF0BC0ABE1B1E0BE
:10062000FC012C2F280F34913D9331962E13FBCFD4
:1006300009C0DC01EBE1F1E02C2F2E0F3D9131934D
:100640002E13FCCF2FEF2C0F30E02F5F3F4F820F88
:10065000931F90932901809328016C2F8BE191E0E7
:100660000E946303CC5FCC3019F08FEF80930001C0
:10067000C093010184E199B1947131F48150D9F7AB
:1006800010922B0110922501DF91CF910895E9E698
:10069000F0E0808182608083E89A0895A82FB92FC6
:1006A00080E090E041E050EA609530E009C02D9193
:1006B00082279795879510F084279527305EC8F399
:1006C0006F5FA8F30895EADF8D939D930895CF930C
:1006D000CFB7CF93DF93C3954C9BE9F74C9B0BC0EF
:1006E0004C9B09C04C9B07C04C9B05C04C9B03C056
:1006F0004C9B01C089C06F93C0912701DD27C25D6B
:10070000DE4F2F9365E54C9B03C02F916F91E6CF91
:100710000F931F934F9320E040E15F9309B1047161
:1007200004FB27F93F9350E03BE039C0147140646B
:100730002F77012F5F5F1EC0406819B114712F77AA
:1007400052501FC0406409B12F770471D1F15F5F2F
:1007500000C023C0406219B12F77147191F15F5F1F
:1007600000C025C004711027515012F45D5F0000D5
:10077000115027952C3F19B1C8F61471012701506B
:1007800027952C3FC8F64227499309B104711027D9
:100790004F73115027952C3FA8F64695469519B1F1
:1007A000147179F00127015027952C3F98F66B5A68
:1007B00060F3315009B1B0F600C011E01CBB002756
:1007C00017C03B503195C31BD04011E01CBB0881C2
:1007D000033CF9F00B34E9F0209125011981110F48
:1007E0001213EDCF093651F10D3211F0013E39F7F8
:1007F00000932C013F915F914F911F910F912F9189
:100800006F91CCB3C0FD67CFDF91CF91CFBFCF91B8
:10081000189520912C01222369F310912A011123AC
:1008200039F534303AF130932A01209326011091A2
:1008300027013BE0311B309327011CC000912A01A6
:100840000130B4F40AE53091010134FD14C0009385
:100850000101CAE1D1E013C0052710E000C000008B
:100860000BB91AC0052710E0221F1DC010E021C0DF
:100870004AE502C032ED432FC4E1D0E032E01AB1C4
:1008800014615C9A0BB11AB954E120E865E320FFCA
:1008900005270BB9279517951C3FF0F66695B8F715
:1008A000B1F720FF05270BB9279517951C3FD0F608
:1008B0002795179517FF052700001C3F0BB9B0F6C9
:1008C00029913A9519F70B7E10912B01110FC65102
:1008D000D0400BB911F01093250111E01CBB006151
:1008E0001AB11B7E402F4B7E54E05A95F1F70BB99D
:1008F0001AB94BB97FCF0E94D9010E944703549A7D
:100900002FEF85EA9EE0215080409040E1F700C043
:10091000000054980E941D027894109219011092C0
:10092000180110921401109213010E945D0288E1D7
:1009300091E00E94CC0083E191E00E947101F5CF2B
:04094000F894FFCF59
:02094400FF5A58
:00000001FF
